:0200000407FCF7
:10000000A074FC07BD01FC07C501FC07DD01FC076E
:1000100000000000000000000000000000000000E0
:10002000000000000000000000000000F501FC07D7
:100030000000000000000000F701FC07F901FC07C8
:100040002120FC075B20FC07A526F007ED1BFC0721
:100050009719FC07FB01FC07ED16FC07FB01FC07E9
:10006000FB01FC07FB01FC077B14FC077F14FC076A
:100070008314FC078714FC078B14FC07FB01FC07A7
:10008000C514FC07FB01FC07FB01FC07FB01FC0797
:10009000FB01FC07FB01FC07FB01FC07FB01FC0764
:0800A000000000008E070E00B5
:0200000407FCF7
:100110000448854605F04EF8004800479103FC0767
:10012000C046C046A074FC0710B51F480189C90825
:10013000C9000181018A1D4CC90713D0808800289D
:1001400010D11B481949428820310A8182888A804F
:10015000C2880A80618AFF22813200889143C001EF
:10016000014361821349062008800F2000F00EF839
:10017000012000F00BF8002000F008F8608904214D
:10018000884360810020208062B610BD002809DB12
:10019000C106C90E0120884007490860BFF34F8F90
:1001A000BFF36F8F70470000000300500000005045
:1001B000A000FC070034005080E100E00F488047B9
:1001C0000F48004704207146084203D0EFF309802E
:1001D0000C490847EFF308800A4908470420714694
:1001E000084203D0EFF3098007490847EFF308807E
:1001F00005490847FEE7FEE7FEE7FEE72901FC07A1
:100200001101FC07A502FC070D02FC0710B504460E
:1002100020484089C00508D51B2000F0EFFF1D488D
:1002200060300188012211430180052212071088E5
:10023000518A0007800FFF2381339943C001014396
:10024000518215492068086060684860A06888602D
:10025000E068C8602069086160694861A0698861D8
:10026000E069C8610C620D48836A4B62C36A8B62A5
:10027000036BCB62C36B0B63436B4B63806B886315
:10028000074908200880908AC00601D500BE10BD2D
:10029000FEE70000200000500090FC0700ED00E0A9
:1002A0000033005070B5052504462D07288A042127
:1002B00008432882288940210843288124480126B0
:1002C000066024490820088023484089C00507D5D6
:1002D0001B2000F093FF20486030018831430180EB
:1002E0002888698A0007800FFF2281329143C0016C
:1002F0000143698219492068086160684861A06803
:100300008861E068C8612069086260694862A06924
:100310008862E069C8620C631148826A4A63C26AF3
:100320008A63026BCA63C26B0C4940310A60426B3C
:100330004A60806B8860A88AC00608D500BE688ABB
:10034000012180088000C9030843688270BDFEE770
:1003500080E200E000330050200000504090FC0795
:1003600000ED00E070B5094E0D46044611463046DA
:1003700001F072FCAAB201232146304601F0E0FCF4
:1003800070BD10B5014801F013FD10BD0011005003
:1003900008B500F0C7F800F075FB05242407082510
:1003A000C826A84F0FE0012000F02EFA0020009090
:1003B000042168464DF7C2FB002801D000F0E7FA9F
:1003C00060F7AEFC0BE02089000608D5012080070D
:1003D000006B000403D49C480078C0070BD072B6B1
:1003E00001F0D0FE042810D0022815D0032813D025
:1003F000012821D021E05DF700F8002000F004FA88
:10040000924800780428DBD1CDE791480078012894
:1004100001D0032000E0022000F04EF8A08AC006C0
:1004200001D58C48058030BFA08AC00601D5894817
:10043000458000F005F800E030BF62B63E80C2E7BC
:1004400010B500F07FF9844902280CD1052000077F
:10045000408AC005820F814802800A8942808A88CA
:1004600082800A88C28048896021C00500280ADB92
:10047000794860300088C00705D0774A2032508A1A
:10048000884320305082764882888A432032828096
:100490007448C078002807D07348006801898AB280
:1004A000416803205CF70AF903F0EFF86F4801692F
:1004B00004229143016110BD38B5694605240870D6
:1004C0002407218A054604221143218200F063F8A3
:1004D000614841896022C905002905DB5E4B203354
:1004E000598A9143403159825D498B889343403307
:1004F0008B80022D01D0032D13D18188490849003A
:100500008180002000900099491C00911429FADB99
:10051000618989088900491C618161894906FCD586
:10052000608038BDF0B55248524905230127524A30
:10053000884201D31C4604E0904201D33C4600E0CF
:1005400000244E4D4E4E4748AD194E4E8470AD19A5
:100550000126B6034560B54201D8142500E0002508
:100560002540494C45708C4213D2484B2546EB1828
:10057000944205D38B4201D211230AE03B4608E0A6
:10058000934201D2142304E08B4201D2102300E0F5
:1005900000230370F0BDF8B5022801D0032848D12C
:1005A000324A136904210B4313612D4A203A93897F
:1005B0005B085B009381052410222A4E2407022841
:1005C0007578608A36D010436082608A0843608202
:1005D0007068C01C870801F051FA608A1021084336
:1005E00060822B487F1E0762EFF31080012181F3A8
:1005F00010882188802291432180002800D001208A
:1006000080F3108814484089C0050AD501F024FA07
:100610000B2000F0F3FD10486030018801221143E7
:10062000018003205CF770F8002806D00120F070EC
:100630002583F8BD90436082F3E70020F0703078A6
:100640000540F5E70031005054BAFC07088DFC075F
:10065000B4BAFC070033005020000050A000FC0793
:1006600020030050C88BFC0758B9FC0700ED00E0E0
:10067000C08BFC070070FC070040FC071001FC0762
:10068000D46B0000000004F8A074FC070C04000008
:100690000000F407704770B50D46002442F72FF9AB
:1006A0002855641CE4B2202CF8D3002070BD10B58E
:1006B0005EF710FD10BD10B55EF715FD10BD70475B
:1006C000704770470649884200D000BE05210907DF
:1006D000488A012280088000D20310434882704774
:1006E0001111111144480178002902D08021417074
:1006F00070474249002008704149C87070473E4920
:100700000A78002A03D000280CD002200BE0002831
:1007100001D0022000E0012038490870384901204A
:10072000C87070470120803048707047002805D09D
:10073000012804D0022804D10120E0E7D2E70020FC
:10074000FBE770472D4900200978002904D00129D2
:1007500003D0022900D102207047012070472648AB
:100760008178002904D0491E0906090E817019D12B
:1007700042780021002A04D09207920F0270417043
:1007800004E00278002A01D0521E02701206120EF6
:10079000017007D0012A03D0022A03D10120AEE75D
:1007A0000020FCE7704700B5134A9078401C907019
:1007B0001078002805D1FFF7C5FF431CFFF792FF13
:1007C000137000BD0C48C07870470020EFF3108113
:1007D000012282F31088052212071289120605D41D
:1007E0000848028901231A4302811846002900D0D3
:1007F000012181F310887047D08BFC07B4BAFC0745
:1008000054BAFC070033005010B5FE4CA178002903
:1008100021D0FD49002803D008884007FCD402E01D
:100820000888400717D4CA88888811040A1800204D
:10083000A070F64800235043800B401C4008E06144
:100840001F204006492162F70BFEE162A06264218D
:100850004843000CA06110BDEB4948800888032282
:10086000104308800888042210430880E5490120CD
:100870008870704770B505200007018930229143C8
:1008800001810189802211430181018908221143DC
:100890000181DF490A88520852000A8043891822E0
:1008A00093434381048940231C430481048A042523
:1008B000AC430482848AA407FCD5D24DAA246C617F
:1008C000CD8801240F263602B5430B263602AD191A
:1008D000CD80CD882543CD8044899443083444811C
:1008E0004A88520852004A800189994301810120B7
:1008F00080070168821591430160C64801683F2264
:1009000052029143421489180160016802031143A5
:10091000016070BD10B5BB490122D203C969904284
:1009200005D304F0A0FC8905800A084310BD4843A4
:10093000800A10BDEEE710B5B24989694843B6494F
:10094000401849005EF75EFB10BDF4E770B500F09B
:10095000DEFB0446FFF7F9FFAA4D288120463C3014
:10096000FFF7F3FFAD49001D88602A891018C01DEC
:10097000AB4A48601278022A01D111304860FFF773
:10098000D9FFA849401880B25CF7C8FD70BDF0B52A
:10099000A54985B00120C863C86B0028FCD101209F
:1009A0008007C069974C2169884201D200212161EA
:1009B0001922411AD20191422AD320619B48018811
:1009C0000391418802918788C688994903C900909C
:1009D0000191684600F069FE00F091FE0546012095
:1009E00020567F280CD0281A40B2002801DA404255
:1009F00040B2082805DBE068401CE06001F07FFDA4
:100A000065708A48029941808780C6800399018079
:100A100005B0F0BD0020704710B586490020086081
:100A2000FFF794FF01208007016B4900490801632B
:100A300010BD08B57349888075498A8852085200EC
:100A40008A80002200920099491C00911429FADB47
:100A5000052109074B899B089B005B1C4B814B8937
:100A60005B06FCD54880E120C0000092521C009239
:100A70008242FBDB48898008800048814889000663
:100A8000FCD508BDF8B56C48C82101800021418023
:100A90006A480824448000F0F7FB694DA98868463D
:100AA00001800088C046C0466846008804239843F9
:100AB0003ED00020A8806248203001880F22920298
:100AC00011430180524E2036718A21437182504970
:100AD00060310A880625AA430A800588CA011543A1
:100AE0000580758A95437582B28A0E25AA43921DA8
:100AF000B282474A5589534FED050D881DD5BD4338
:100B00005701ED190D800D880F022D052D0DED19E2
:100B10000D8005882543058005889D4305800D8847
:100B20006D086D000D8001884025A943018020E0FB
:100B3000288A400840002882BDE7BD4303277F0282
:100B4000ED190D800D880F273F033D430D8005886B
:100B5000A543058005889D430580B58A03277F024C
:100B6000BD43B5820D8801273D430D80518949075A
:100B7000FCD50188032529430180718A6025A9439A
:100B8000203171828188A9432031818001201D4E4E
:100B9000052530702D07E88AC02188438030E8821F
:100BA000108A000A00021082108B1C218843083032
:100BB000108325480380A8880121C9028843A880A2
:100BC00048012249086000F059FF022000F01BFF95
:100BD0001F4F3869C0B2AA2875D0012029880C227D
:100BE0009143800001432980C046C046054820301B
:100BF00000F0B6FA00F02AF900F086FA002864D076
:100C000028E00000D88BFC070016005011110100ED
:100C1000200000500002004020A10700E86DFC0702
:100C2000B4BAFC07E2040000C00000400015005008
:100C30006462FC07A8B9FC07003100500033005083
:100C400000030050000F00000002005080E200E0AE
:100C5000C07FF80700F058FAFFF7EBFE7F207070B6
:100C6000B86A1E49086000F039FF00F041F802F050
:100C70000CFD012041F749FEFFF7FCFD1848006814
:100C800041F7E8FA17490020C87008710120800771
:100C9000016882151143016001F034F91E20FFF74D
:100CA000DBFD0120FFF7B0FDFFF71CFD02F06FF93F
:100CB00002F00CFDFFF7B0FE0B49C82008800B487E
:100CC0004480F8BDFFE7032088E73869C0B2AA284E
:100CD00001D06E20C0E78020BEE70000E86DFC0771
:100CE0004CB9FC0754BAFC070031005000330050E7
:100CF00070B53548334D006834492C6892B088424D
:100D000005D005225202324932485EF7F5F9324EDB
:100D1000324930465EF709FA0721314809025EF789
:100D200004FA2C6003F08AFF2F492E4808602F48F0
:100D30000024048030222E492E485EF7DDF929492F
:100D40000822083903C91191109010A92A485EF7AA
:100D5000D3F924494022283168465EF7CDF9402274
:100D6000694626485EF7C8F9254827490470254892
:100D70000860274925480860274926480860274910
:100D80000A20087026482749047032200870264936
:100D900005200860254A0121116025490860254980
:100DA00006200860244907200860244908200860BC
:100DB000FF20234907300860224908602248066066
:100DC00012B070BD5CBAFC079CB8FC076587341292
:100DD00000B0FC07248EFC0700A0FC07AC14000048
:100DE00000B9FC077462FC0760BAFC07088CFC07BA
:100DF0007CFCF10700BAFC07DAB9FC07B0BCFC07C1
:100E0000FDB9FC07603FF20750B9FC07FC5FFC0727
:100E100054B9FC077861FC0758B9FC07B0B9FC0766
:100E2000B1B9FC07D9B9FC075CB9FC0760B9FC078C
:100E300064B9FC0768B9FC076CB9FC0770B9FC071A
:100E400048B9FC0744B9FC074CB9FC07F0B5B84CED
:100E500089B000202076607603900120C046C0460D
:100E6000B4480169B448814202D0C01709B0F0BD4E
:100E7000B04F0425403FE819016D0191090F092980
:100E800010D001220198920790427AD3AB4A904247
:100E900077D8AB490835884274D1E819C16CA948A4
:100EA0004180A6E0019A01991204C9B2160E1129D7
:100EB00035D007DC0B005EF773F908747474747432
:100EC000740D1F7412390B005EF76AF9063A4B5D18
:100ED0006B60656B207EB200C100954840380818F1
:100EE0009449143169185EF707F9207E8019C0B261
:100EF0002076042854D854E0607EB200C1008C48AB
:100F0000403808188B491030143169185EF7F4F82E
:100F1000607E8019C0B260760C2841D841E0416DF6
:100F200089B20291406D000C01460490029800F0D5
:100F3000F1F8A0800499029800F0F4F8E08030E025
:100F4000416D89B20491406D000C014602900498F5
:100F500000F0E0F820810299049800F0E3F8608145
:100F60001FE0039805A9800040187249B2001431AF
:100F700069185EF7C1F803988019039002280FD80A
:100F80000FE02BE010E0406D60820AE0416D6848A0
:100F90004038016405E0406D0004000CA08200D1DF
:100FA00000BEB00045194DE065492639884203D19D
:100FB000E819C06CE0821CE06149091F884204D135
:100FC000E819C06C5F49888013E05D4908398842A0
:100FD0000FD1E819C06C5B49C8800AE007292ED000
:100FE00008292FD00A292DD006292BD0401C07D044
:100FF00000BE5048103029185348814200D23AE7C9
:101000000598A0810698050C86B22946304600F066
:1010100081F8E0812946304600F084F82082207E65
:10102000C10700D000BE40082076607EC10700D016
:1010300000BE40086076A18A002905D007E00020A4
:10104000C046C0462D1DD4E77D21C900A1820428D9
:1010500000D000BE002009E7F8B5354C0025403C23
:10106000334F24E0EE00A059384988421AD1301994
:1010700000904068800A400414D001F025FD092842
:1010800010D900980322406812020146090410405A
:10109000890E0843A159086000982D494068C00195
:1010A000C00D02E030194068A15908606D1C387EFF
:1010B000A842D7DCF8BDF8B51D4C0025403C2746BA
:1010C000403717E0E80006192248316981420DD106
:1010D00001F0FAFC092809D91F49706908401C4928
:1010E0000988490408433169086002E03069716980
:1010F00001606D1C787EA842E4DCF8BD0C48808954
:1011000070470B48408A70470948C08A70470848B2
:10111000808A7047081A0104890C40180F4940184A
:1011200000B27047C2008018401A0004C014704713
:101130004C8CFC07C07EF807A5A5A5A54C42005025
:1011400028000050A000FC07C07FF8074C100040AA
:10115000F46DFC0738300040FFFF01FC0100FFFF89
:1011600010B5062201495DF7C7FF10BDD47FF8070F
:1011700005200007018830221143018001880322E5
:1011800011430180704705200007018830229143F8
:1011900001800188890889000180704736490A8BDF
:1011A00003231B029A43000202430A837047334918
:1011B0008A8A03235B029A43C3085B021A438A822A
:1011C0008A8A0723DB0240079A43800C02438A8203
:1011D0002A484030018801221143018027482038E5
:1011E00041894907FCD570472448818A808A49058E
:1011F000890F8004400FC900081870471F498A8A68
:1012000003235B029A43C3085B021A438A828A8AD9
:101210000723DB0240079A43800C02438A8270470F
:1012200010B50446154820384089C00502D4012075
:10123000C04310BD00F00DFC002806D0FFF7D4FF1E
:10124000A04202D90020C04310BD0C48408AC0040F
:1012500008D40B480088000704D4082C02D20420CC
:10126000C04310BD07480121047041702046FFF7BC
:101270009EFF002010BD00002030005040000050B4
:1012800020030050F86DFC07F0B585B00026884CAF
:10129000029602983021484300960019009989006F
:1012A00046500099491C00910C29F7DB0298401C1C
:1012B00002900128EDDB02F07BF97D4D0021083D15
:1012C0002960696001270296002000900299794800
:1012D0004900465A00993846884080B206421DD0DF
:1012E0000298302148430099001989004058411C58
:1012F0001BD000280DD0C117009A5DF741FF029A5C
:1013000012015DF73DFF2A686B681043194328609E
:1013100069600098401C00900C28DBDB0298401CA0
:1013200002900128D0DB05B0F0BD00BEE3E7F8B5C0
:10133000164605460C460A461F46012000215DF769
:101340001FFF2A015DF71CFF594B083B1A685B68B9
:1013500010401940084300D100BE680156494018AA
:10136000610008183E43C680F8BD70B505460C46BE
:101370000A46012000215DF703FF2A015DF700FF07
:101380004B4A083A1368526818401140084300D18C
:1013900000BE6801484940180121A140818070BD0C
:1013A00070B505460C460A46012000215DF7E8FEAF
:1013B0002A015DF7E5FE3E4A083A13685268184074
:1013C0001140084300D100BE68013B49401801218B
:1013D000A140418070BDFFB581B00C4605460A466C
:1013E0001F46012000210A9E5DF7CAFE2A015DF713
:1013F000C7FE2F4B083B1A685B6810401940084332
:1014000000D100BE002E2146284602D0FFF7C8FFBB
:1014100001E0FFF7AAFF3B4621462846039AFFF763
:1014200086FF80E770B5012421460A3881400D46C9
:1014300088B200F02CF884402048C189A9430C43AD
:10144000C48170BD10B504460A3804280BD8204664
:10145000FFF7E8FF1649A000303140188038806D52
:10146000002801D0804710BD002CFCDBE106C90E2E
:10147000012088401249086010BD0A20E2E70B20D5
:10148000E0E70C20DEE70D20DCE70E20DAE700289D
:101490000BD0411E4840C003010C002002E0490867
:1014A000401C80B20029FAD170471020704700001C
:1014B000708CFC07DC62FC07003000500014005008
:1014C00080E200E010B5FFF75EFE0522120790886B
:1014D0002049000504D5204B1C880520A04311D0CD
:1014E0009088C3061D481FD58388DB071CD003885E
:1014F0001B0619D501228280028880239A4302802C
:10150000486822E018880422104318801888400890
:10151000400018800C68002C05D00220185E995EEF
:101520000A229A5EA04710BD9288D206FBD5828817
:101530009207F8D50288D205F5D50222828002886A
:10154000FF2301339A43028088680028EBD080474C
:1015500010BD0000B48CFC070002005000010050D8
:101560007D480188012212039143018070477A4827
:1015700001880122120311430180642000BF401E34
:10158000FCD170477449CA88D208D2000243CA808D
:1015900070477149CA8870239A4300010243CA8088
:1015A0007047F8B5050049D06B4C29782088402257
:1015B00090438901084320806878FFF7EAFF287884
:1015C000002803D168780009FFF7DCFFE8780426DB
:1015D0000128208833D0B04320802879A1880002D8
:1015E000C9B20143A180E08801274006400F7F0275
:1015F000042826D0FFF7B4FFA8780F2800D900BE32
:1016000061880F2252029143400201436180687950
:1016100061888908890001436180A87901282088B0
:101620003BD0B8432080E879072800D900BE618804
:10163000FF22C1329143800101436180F8BD3043F4
:10164000CAE7FFF75EFD45490028088001D14448FC
:101650000880FFF78CFF20883843208021884020B5
:101660008143014321806088304360806088C004EA
:10167000C00C608060880F21490288430843608065
:101680006088FF21C1318843FF2181310843608098
:101690006088800880006080F8BD3843C2E72E482B
:1016A0000188012211430180704770B505462A4C1C
:1016B000002020802120000160804020A080FFF7D2
:1016C0001DFDA081A189702081434031A1810620A8
:1016D00000F035F82846FFF764FFFFF7E0FF70BD24
:1016E0001D48018802221143018070471A490120D8
:1016F000C8811C480068002800D00047704710B51A
:10170000FFF7EEFF144801888907C90FFBD10121BB
:10171000C181008A114A14491288801A7D22D200A0
:101720005043002801DD4A1002E0002801DA0F4A88
:1017300080185DF77DFC8011193040B210BD002883
:1017400009DBC106C90E0120884009490860BFF3C2
:101750004F8FBFF36F8F704700150050FA6DFC0775
:1017600040760000C08CFC07AA0500002BFDFFFF9F
:1017700080E100E010B5934A13885B085B0013809A
:1017800013884024A343138013880824A343C00074
:10179000034313801089800A80020843108110BD22
:1017A00030B5884B1C880125640864002C431C80DC
:1017B0001C884025AC432C431C80012900D101200A
:1017C0001C882025AC43400104431C801888102449
:1017D000A0430901084318809888800A80021043BA
:1017E000988030BD30B5EFF31081012282F310886C
:1017F00005231B079A882024A24322439A800029AC
:1018000000D0012181F310886E4C6034A189490811
:101810004900A181A189C907C90FFBD169490022EB
:1018200020310A82674A038893824388138383881E
:101830009383C3880B8013880625AB43457A6D00DC
:101840002B431380827B002A00D100BEC37B002B78
:1018500000D100BE8B8B5B095B01521E13438B834F
:101860000A8B5309C27B5B01521E13430B83817A9F
:10187000012917D08189C07AFFF77CFFA189012057
:1018800081430143A181A089C007C00FFBD04E480E
:1018900001688022090A0902114301604B491020A6
:1018A000086030BD8289C17A007AFFF779FFE5E7E9
:1018B000F0B5002584462846DC0701D002242343E6
:1018C000404C404F60340E46491E89B2002E1AD05B
:1018D000268AB607F60FFBD0002904D19D0702D552
:1018E0000126760200E0002665462D5C2E433E82EE
:1018F000344D401C80352D8880B2002DE3D0314915
:101900004031898A09E0D90707D0218A4907C90FE0
:10191000FBD0218A8906C90FFBD1002A00D015808F
:10192000F0BDF0B50027274D84469E4638463C461C
:10193000244E603529E0641CA4B28C4205D1734664
:101940009F0702D501277F0200E00027FF23013314
:101950001F4337828C4209D22F8ABF07FF0FEAD17B
:1019600004E0378A63461F54401C80B2884203D289
:101970002F8BBF06BF0EF4D1124F80373F88002F48
:1019800003D010494031898A01E08842E2D3002A1D
:1019900000D01780F0BD0B4810B5203080890C496D
:1019A000C96A002901D0884710BD042000F001F861
:1019B00010BD002805DBC106C90E0120884005497D
:1019C000086070470013005004E400E000E100E00C
:1019D000FC6DFC0780E200E010B50446FFF704FC54
:1019E000A04202D22046FFF709FC58480188C907E7
:1019F00008D101880122114301805448603841898F
:101A00004907FCD510BD38B5514C05462068410743
:101A1000490F684601700078854219D04B486038FC
:101A20004089C0050CD5A81E03005DF7B9FB05046D
:101A30000604040409000B2000E01320FFF7CCFF8C
:101A40002068C008C0002843206060684007FCD5BB
:101A500038BD4048007870473E4900200870704704
:101A6000052109070988090600D400BE80003A490B
:101A700009583748016139494161704710B5EFF3A2
:101A80001084012080F31088304860384089C005F8
:101A90000BD5304901200870FFF7A6FB30490870CC
:101AA0002A480088C007C00F487005200007018839
:101AB00080221143018026480168C908C9000160DD
:101AC00041684907FCD50320FFF7CAFF002C03D06B
:101AD000012080F3108810BD0020FAE770B5EFF305
:101AE0001084012080F310880521090708888022CE
:101AF0001043088016480368DB08DB000360436876
:101B00005B07FCD5174B0361144B43610888904376
:101B100008800E4860384089C0050ED50D49002068
:101B20000F4D08702878FFF769FB6878002804D10A
:101B300006480188490849000180002C03D0012093
:101B400080F3108870BD0020FAE70000800000508C
:101B50000000F407C48CFC07E062FC07090404A43D
:101B6000F86DFC070F0099098307FF22DB0E9A40EE
:101B70008907090E9940002808DB8308DB489B0091
:101B80001B18186890430843186070470007000F3F
:101B900008388308D6489B001B18D869904308432F
:101BA000D8617047D34930B4884201D0012100E0A8
:101BB0000021D14A4901891808E0838ADB07DB0F3D
:101BC00012D00388541C8D68CC81AB54CA898B8990
:101BD0009A42F2D382885208520082808A69002A8F
:101BE00002D0C88930BC104730BC704710B5C3481C
:101BF00000F0FBF810BDEFF31081012282F3108892
:101C0000BC4B052212079842908801D1802300E046
:101C1000402318439080002903D0012080F31088CE
:101C200070470020FAE710B502464032938FDB0779
:101C3000DB0FFBD183898022934313438381CCB292
:101C4000C0231C520B041B0E03800902090E818065
:101C500081899143818110BDA64A904201D0012023
:101C600000E00020A44A4001801841617047F0B5AF
:101C7000A04F0D460446B84201D0012000E00020EC
:101C80009D49400146182046FFF7B5FF7C20005BC8
:101C900028680102090A2046FFF7C5FFE978C8064F
:101CA0008A06800FD20FC000920049071043490FE7
:101CB0000843A081E878C109204680300183E97893
:101CC000CA091AD0BC4210D14906CA0F218A202362
:101CD0009943520111432182E9784906CA0F218AAA
:101CE0000223994352001143218229790907890F60
:101CF000818329798907890F0184287A3077E868F8
:101D00003061286970616869B06128790007800FC7
:101D10007077F0BD828A5209D207D20FFAD00180C3
:101D2000704730B513460C46054606E02178284634
:101D3000641CFFF7EFFF5B1E9BB2002BF6D130BD9A
:101D400070B56C4D0446A84201D0012000E000208F
:101D5000694E400186190020F080B280002B06D029
:101D6000012B07D13160AC4205D1022004E02046AE
:101D7000FFF7D7FF70BD032000F029F8A0880221EB
:101D800088430843A080A088802188430843A0801E
:101D9000317FAC4201D1022000E00320FFF7E4FED6
:101DA000AC4201D1022000E0032000F007F870BD32
:101DB000818A8909C907C90FFAD07047002805DB55
:101DC000C106C90E012088404D49086070470028AF
:101DD0000ADBC106C90E01208840494980310860EC
:101DE000BFF34F8FBFF36F8F7047F8B5414D424E31
:101DF000044620890007000F062826D009DC0128A8
:101E000040D002281DD00428F3D12046FFF7CAFE97
:101E1000EFE7072828D00C28EBD1AC4201D00120F5
:101E200000E00020400187192046FFF7BBFEA18893
:101E300049084900A180B9690029DAD0F8898847A2
:101E4000D7E7204600F01FF8D3E72046AC4201D088
:101E5000012100E00021490189190A69002AC8D03E
:101E6000818A9E2319400BE02046AC4201D001211B
:101E700000E00021490189190A69002AB9D001212D
:101E80009047B6E7F8BD1B4930B4884201D0012124
:101E900000E00021184A490189180EE003891B0659
:101EA0009B0F032B1BD0838A9B06DB0F002B1BD0C1
:101EB000531C0C68CB80A25C0280CA888B889A4233
:101EC000ECD3828802239A438280828880239A43BB
:101ED00082804A69002A07D0888830BC10477C235A
:101EE0001B5A9B07DB0FE1E77EE6000000E400E001
:101EF00000ED00E000100050C88CFC0700110050FD
:101F000000E100E0F8B51D481B4D0068A84231D043
:101F1000FF26C136012130465AF75EFC04461848B8
:101F2000016818480A0A017042700A0C8270090E92
:101F3000C1700022A35CFF21C0319F07891ABF0F27
:101F4000615CC75D79405940A154521CB242F1D343
:101F50000C481C222146001D5FF762F8002800D0C3
:101F600000BE20465AF7B3FC0648406840F7CDFC57
:101F700002480560F8BD0000658734129CB8FC0774
:101F8000E86DFC072C6EFC07F8B50125AD07AC6BBE
:101F90002046FEF7CFFC6949694F4A688618002041
:101FA0004860394630465DF72DF8664948603A4644
:101FB0005043301A00D0381A80B20860286B0821CC
:101FC000884308432863604804606048006800282C
:101FD00002D0A04200D200BEF8BD10B5FFF7D3F882
:101FE000052000074189890703D0418989088900B4
:101FF00041810189802211430181018A0422914398
:102000000182818A8907FCD500F0B4F8012080079D
:102010000169490700D500BE01694907FCD510BD1B
:1020200010B5FFF7A5F84A4801894907FCD4FFF726
:10203000AAF8484805210088090748804648474CC7
:102040000088801E608007202080FFF791F820889C
:102050004007FCD4FFF7C1FF10BDF8B54048016848
:10206000C90703D0016802221143016001684902D7
:1020700004D50168012292051143016001272F4E0A
:10208000BD072C69002C57D0200606D58020A861FA
:102090004BF7FDFB1E20FEF7DFFBA00703D5022058
:1020A000A86147F7F2FA20070AD50820A86102F0D4
:1020B00072FD002047F7A2FA0420307000F0FBFC0C
:1020C000E00505D5FF200130A861012047F796FA09
:1020D000A00504D501204002A8614BF741FC600631
:1020E00003D54020A86147F784FAE00603D5102005
:1020F000A86145F741FE60070FD50420A861144888
:1021000001894908490001815BF7DEF940F798FA37
:102110001E20FEF7A1FB00203070E00706D0012052
:10212000A8615BF7EDF94BF7B2FB3770A006A8D5B5
:102130002020A86100BEA4E7F8BD0000088DFC07C0
:102140007102000040000040188DFC07108DFC0754
:1021500000330050DC8BFC07E08BFC0700160050BE
:102160000002004010B540F7B0F867488068674942
:10217000486010BD10B540F7D4F864486249406823
:10218000886010BDF8B5002500F0B9F80027009070
:10219000FEF718FB01465E4E0020002902D131797E
:1021A000022900D100905B490989C9070DD15AF76E
:1021B000F0F9002809D0F0780125002805D0052085
:1021C0000007808AC00701D0042596E030880028E7
:1021D0007DD1FEF7F7FA002806D14F48806A002823
:1021E00002D000F08CF80090FEF7B0FBB1786846A2
:1021F0005AF7C7FF00286AD00124A40720694006C7
:102200007BD44348817868464BF798FC002874D00B
:102210000120FEF7C3FF0099002906D0206AFF388D
:102220003938DA2801D8491E00913C4802883C48D8
:10223000016850183B4A1060E26B920A92020A430E
:10224000E263E16B384A1140384A1668B202114322
:10225000E163E16BC902C90A40050143E163344A05
:10226000009804250021904200D300BE314B0CCBD6
:102270005CF7F2FE0903000D0843244A401E711C5E
:102280001060884200D1166021480079002801D0F2
:10229000012100E00021106847F766FB2648C06A6C
:1022A0008047FEF7B7FB002802D0FEF761FF012749
:1022B000154E206B0004C00FFBD03068C005FCD564
:1022C00030688024A0433060002F03D000E014E089
:1022D000FEF759FF0F494889462804D24622174B7A
:1022E000101A18604A81FFF73DFF30680006FCD5E0
:1022F000052000070189A14301812846F8BD104847
:102300000068806A7047000000020040108DFC07E2
:1023100054BAFC070033005074BEFC07E08BFC0786
:10232000F06DFC07406EFC07FF03E0FFEC6DFC075F
:1023300040420F00008CFC0758BFFC070C8DFC07C7
:1023400058B9FC07002070477047704710B528281F
:1023500001D2282002E0E62800D9E620FF21F3314F
:1023600048437D21C9005CF74DFE8130C0B210BDED
:102370007047704710B5022902D0012900D000BE75
:10238000002802D0FF2802D000BE022902D000F0AF
:102390009BFB10BD0C2010BD01218907086B072293
:1023A000104308638C480168021391430160704731
:1023B00010B50220FEF7F2FE874801680203914340
:1023C0000160864800214163416B1F221204914342
:1023D00042138918416301060868F0229043E030F7
:1023E000086010BD10B58AB07D4941627D498162A7
:1023F0007D494161002430210C547C49C1627C49F3
:1024000001607C4901627C4941607C49C16100F006
:102410003EFB7248416B1F221204914342138918FC
:1024200041636D480168C2129143016068460455DA
:10243000641CE4B2282CFAD30146714828220068B3
:1024400040305CF759FE092000F03BFB00F03FFBF9
:10245000002802D0012000F034FB00F019FBFEF749
:10246000FBFDFEF728FE00F0D5F800F058F8FFF766
:102470009FFF00F00BFB00F083F800F01CFB0AB09C
:1024800010BD10B55548416B1F22120491434213F1
:102490008918416300060168C908C9000160052068
:1024A0000007018908221143018100F010FB002878
:1024B00002D0012000F005FB00F0EAFAFEF7CCFDA7
:1024C000FEF7F9FD00F0A6F800F029F8FFF770FF1D
:1024D00000F035F800F0EFFA10BD10B50446702298
:1024E000484949485CF708FE47484830011B4648C0
:1024F0001038018344495C31091B418310BD10B57C
:1025000000F0C6FAFEF7D7FD00F084F800F007F8F7
:1025100000F0BCFA00F023F800F0CDFA10BD2F4B0C
:1025200010B540331868394C0102090EC2B20A31A5
:1025300009040A32204011430143196010BD344A96
:10254000118B3148103083691B0C1B040B438361D2
:10255000518BC269120C12040A43C26170472C4AA3
:10256000203A118B28481030C3681B0C1B040B4306
:10257000C360518B0269120C12040A430261704756
:1025800010B5FFF7ECFFFFF7DAFF21482038018A8A
:102590001D4810308268120C12040A4382601C4AE3
:1025A00040329188036A1B0C1B040B430362D188E1
:1025B000426A120C12040A43426215494A88836A2D
:1025C0001B0C1B04134383628988C26A120C120419
:1025D0000A43C26210BD00000002004040000040FB
:1025E0004523FC074923FC077523FC079923FC07B7
:1025F0004B23FC077123FC077323FC074D23FC07C7
:102600004CB9FC07FC62FC0770A0FC0700FF00FF50
:1026100020300040F0B5FE48406B7F21090288431E
:102620000B2109024018FA494863086AF94980B247
:102630004018F7490862886BF749012208405203A5
:10264000F34980188863F2484030016903231B0274
:1026500019430161818B102421438183EC48203090
:102660008188012421438180ED49EC480860ED4CCC
:1026700020883F21090188432F210901401820802B
:10268000E84820388169E84D490D490549198161BB
:10269000C169E64D294009256D024919C1614168AA
:1026A000E34D2940E34D491941608168E24D2940DD
:1026B000E24D49198160C168E14D2940E14D491958
:1026C000C1600169E04D2940E04D49190161E049CF
:1026D000C514097809064919C1256D012943DD4D45
:1026E00029600525DC49AD020D816D1D8D81DA491A
:1026F00020310D892D0A2D0255350D818D25AD0016
:102700000D82D64D8D82D64D0D83D44D0E3D8D83D9
:10271000D349D14DC91D40352980D249A181C16B12
:10272000D14C2140D14C0919C163FF20D04C6C30F1
:102730002080CF482030068B1F2149010B258E4376
:10274000AD0176190683CA484030868809278E4332
:10275000BF01F6198680068915278E437F01F61979
:10276000068186898E4371198181FF208D30A0807A
:10277000BF4880300189E024A14319430181818B46
:102780004909490119318183B2482030818B5B01AD
:10279000994389188183AF4880300168C908C9000E
:1027A000C91C0160AB49B34840314862F0BDA9493A
:1027B00008B500208031C8620090401C0090FF28BE
:1027C000FBDDAD480078AA49C006820D4031C868DB
:1027D0001F235B0198431043C86008BDA7488C497C
:1027E0000068403108608A488169890989011C3183
:1027F00081618169C21391438161016B3F2212069D
:1028000091430722920689180163016B3F229201CE
:1028100091430F22D20189180163016B8909890153
:102820001E31016370477A48C16949084900C16196
:1028300070478F4808B54030C1688F4A8905C90E76
:102840001170C1681F2252019143C160814901206A
:10285000887180488030C16A03221143C162002020
:102860000090401C0090FF28FBDD08BD08B57949A9
:102870000220887100200090401C00900B28FBDB98
:1028800008BD634841210177C16903225202914387
:1028900002158918C16170475D4840300168774A68
:1028A00011600021C9430160594881698909890182
:1028B00081618169C21391438161C169032252021E
:1028C00091430315C918C161C1697023994340310F
:1028D000C161016B3F231B0699430B235B06C9189B
:1028E0000163016B3F239B01994389180163016BCD
:1028F00089098901183101637047F8B555480327E4
:102900004771434C6068C009C00114306060FFF734
:10291000C3FF43202077FFF7A9FFFFF78AFF0025B9
:10292000261500950098401C0090B042FADB4949FA
:1029300003204871364880308068C705FF0DFFF7D7
:1029400036FF00950098401C00901028FADBA06923
:102950004002400AF9050843A061A06948490840BF
:10296000B9010843A061FFF78CFFFFF77FFFFFF776
:1029700060FF00950098401C0090B042FADB35499A
:1029800003204871224880308068C705FF0DFFF79B
:102990000EFF00950098401C00901028FADBA069FB
:1029A0004002400AF9050843A061A0693449084083
:1029B000B9010843A061FFF764FFFFF757FFFFF776
:1029C00038FF00950098401C0090B042FADB214986
:1029D000032048710E4880308068C605A069F60D56
:1029E0004002400AF1050843A061A069244908405B
:1029F000B1010843A061FFF716FFFFF7EFFEFFF7F5
:102A0000D6FE00950098401C00901028FADB39E0B3
:102A10000030004000008888FF00FEFF59055C0779
:102A2000800000402020004009581A00FEE1FFFF0E
:102A3000E0E000000809294900000303696A686CA6
:102A4000031FFFFF70600000E0E0E0E00B0A0A08EF
:102A50001C8DFC070010004020130040340A0000C9
:102A600051080000070F00002F64E0FE101A060155
:102A70000012004050015001B067FC07446EFC0793
:102A80003F80FFFF134846810120F8BD35E77047BE
:102A900008B511480821017100210091009A521CCB
:102AA0000092102AFADB0091491C00911029FBDBEF
:102AB0000321417108BD08480221817100218180F4
:102AC000704706490870704704480078704703480B
:102AD00040787047486EFC07001000401C8DFC07D2
:102AE000FFB585B00C46FD205EF782FB0390002702
:102AF0006846077008986946060A20885FF7A4FCB4
:102B000005466088002800D000BE002D6AD1FD2057
:102B100000F012FD694609781423594342680B1DE1
:102B2000D35C022B21D15158354A098891421CD1DE
:102B30000197029720885FF722FC002800D100BE91
:102B400001AB002204A94EF70FFA04982146800534
:102B5000C00F5FF7FFFB05062D0E43D168460178D5
:102B6000E28830465FF7D1FD21E000280BD0806974
:102B70008446002807D06846A2886188A31D007893
:102B80006546A847054601970297208801A94DF799
:102B900066FF002D26D101980089C00B07D16288FD
:102BA000A1882088A31D4DF7C4FF051E1AD1314608
:102BB00003985EF73BFB0146A088079A801D83B20D
:102BC000104859F717FF0746A288A11D801D5CF722
:102BD00093FA684600787880A088B8803E703846BE
:102BE00059F723FF04230848079A089959F702FF69
:102BF00021880180857059F718FF002009B0F0BDC9
:102C0000022900000AFD0000160C0000F8B500259E
:102C1000244CFF272E46002813D128461030266169
:102C2000A082E7826660A660E681A681C0B22146E6
:102C300026605AF7DEF86D1CEDB21834022DECD385
:102C4000F8BDE08A5EF75AFB002802D041682046B2
:102C50008847E7826660A660E681207D5AF723F9FF
:102C60006D1CEDB21834022DEBD3F8BDF1B50D4D4E
:102C70000D4F00242E46E88AFD2803D1182060431A
:102C800080194760E88A5EF739FB002803D0826824
:102C9000284600999047641CE4B21835022CEAD308
:102CA000F8BD0000248DFC07C463FC0710B500F0DC
:102CB000B3FA60F71DFD0120FDF738FD10BD0C21B2
:102CC000334A10B5414389188978FF2902D000F0B2
:102CD000C5F810BD00F07FF910BD10B500F07BF90C
:102CE00010BD10B560F7ECFB002801D000F073F9BF
:102CF00010BD10B500F06FF910BD10B525490A7868
:102D00000270401C491C5CF7F7F910BD2149498C41
:102D100001807047082101801021418000218180BD
:102D20007D21C180704770B50C4601780025194B94
:102D3000002904D0012909D04820207070BD827874
:102D4000011D1A70581C5CF7D7F901E040885884BF
:102D5000257070BD01200870002048808880704771
:102D600070B504464079800911D13FF7C8FD01468E
:102D700020700A0A62700A0CA270090EE170251D0B
:102D80003FF7BDFD2870000AC0210843607170BD87
:102D90006C8DFC07788DFC0700219A4A05E0834280
:102DA00001D101207047491CC9B20C234B43D35CAD
:102DB000FF2BF4D10020704770B59249924C0E461B
:102DC0000C36924D0DE052185268002A07D0C2B25C
:102DD0000C235A4351184968401C60702DE0401C78
:102DE000607060780C2242438B5CFF2BEBD10AE0D1
:102DF00089194968002903D0FFF7CEFF002809D0C0
:102E00002078401C207021780C204143705CFF2802
:102E1000EED117E020780C21414389194968401C04
:102E200020700AE04919C968002909D0C1B21C22E2
:102E300051434919C968401CA0708847002070BDE3
:102E4000401CA070A0781C2141436A5CFF2AE9D194
:102E50000020A07060702070012070BDF8B505469C
:102E60000024684E0AE080198168002904D0641C9F
:102E7000E4B22846884701E0641CE4B220460C21F5
:102E80004843315CFF29EED15E4E00240C3609E048
:102E90008F19B968002903D0FFF77EFF002809D0F9
:102EA000641CE4B20C216143705CFF28F0D1002463
:102EB000564E10E0641CB968E4B228468847F1E732
:102EC00080190169002904D0641CE4B228468847AF
:102ED00001E0641CE4B220461C214843315CFF2918
:102EE000EED1F8BD10B5484CE06800281CD1522343
:102EF00004220921464859F77DFD0D21E06001704B
:102F000000214170434A8280C2800722027281728E
:102F100001224272C1722B23195402460C323EA385
:102F20000D210B3060F7F6FAE06810BD70B5364E33
:102F3000B068002829D136482C23042209210938F9
:102F400059F758FD032101700A21B0604170172123
:102F50000184002585760446458010210A305CF7FF
:102F6000E4F82021E176A583E5832F486584C08FAE
:102F70000021002800D90846E0842B480021403079
:102F80000088002800D908462085B06870BD3EB58D
:102F900000251C49009501950C22343168460295A4
:102FA0005CF7AAF818480C22183069465CF7A4F8B8
:102FB000154C0D222434227017A1601C5CF79CF87C
:102FC000104965842431042059F713FF002104209F
:102FD00059F741FF3EBD10B5FFF784FF59F725FDB6
:102FE00009490020C8600221042059F734FF10BDB0
:102FF00010B5FFF79BFF59F718FD034900208860C3
:1030000010BD00000064FC07548DFC073C65FC0704
:103010000D0D00004C0400004561737954656D701E
:1030200050726F6265000000F0BBFC0710B51046DF
:1030300059F726FF002802D000BE002010BD012352
:1030400004220921704859F7D5FC0121017059F774
:10305000ECFCF2E710B50C780E2C13D008DC012C38
:1030600012D0032C16D00C2C0CD00D2C08D109E05A
:103070000F2C07D0112C05D0122C03D0132C01D00B
:1030800000F07DFC002010BD4878002805D1FFF736
:10309000AFFFF7E74878002801D000BEF2E7FFF75E
:1030A00020FEEFE7F8B51C4610460E4659F7E8FE3D
:1030B000022802D000BE0020F8BD240A00D000BEC5
:1030C0000C202746474351483D18AC70FF2C15D0C3
:1030D0000121E9700321042059F7BDFE4B483188D6
:1030E000C153707A28713146681D06220A315CF797
:1030F00003F801220021204660F7F6F93146204608
:1031000000F025FCD7E770B50D784C78092D04D078
:10311000002C00D000BE00F032FC002070BD70B565
:103120001D4610460C4659F7ABFE2A0A032802D06A
:1031300000BE002070BD0C2042433448FF2110180F
:1031400081700021C170204600F00EFCF1E7F0B55F
:10315000087800252E4C89B01F461646002804D05A
:10316000012817D0022827D129E06846FFF7C5FDBE
:10317000684603783246394620460A3359F73AFC06
:103180000446057068460278411C6280201D5BF78A
:10319000B3FF2BE069460D806846FFF7B7FD0A23B1
:1031A00032463946204659F725FC0121017069460F
:1031B0000988418059F739FC002009B0F0BD0A2385
:1031C0003946204659F716FC04466846FFF7A2FD2B
:1031D0000220207068460088608068464088A08091
:1031E00068468088E0806846C08820812046E1E704
:1031F000FEB51C46089B0D26064D6F4668C7134654
:10320000224660F775F8FEBD020D00006C8DFC07CC
:103210000B0E00004064FC07704710B50A2304221F
:1032200009210B4859F7E6FB04461B2020701420A7
:1032300060F732FA6070142060800420A0800020C3
:10324000E080FF2174312181204659F7EEFB10BD4B
:103250001B0D0000F8B50E460978184600242546D7
:103260000B005BF79DFF090609120915150C180FD5
:103270001B000B241AA512E007241CA50FE008244C
:103280001CA50CE007241EA509E00A241EA506E0E3
:103290000D2420A503E0062422A500E000BEA31C07
:1032A0000146224859F7A6FB0746307838707C70F3
:1032B000002C04D022462946B81C5BF71DFF384677
:1032C00059F7B3FB0020F8BDFEB51C46089B01264C
:1032D000174D6F4668C71346224660F709F8FEBDD2
:1032E0004469616C6F672053656D690044413134F6
:1032F00035333100123456FFFE9ABCDE0000000068
:1033000001D2008005000100312E302E302E302DEC
:103310004C450000765F362E302E31362E3131345A
:1033200034000000FFEEDDCCBBAA00000314000057
:10333000A864FC07052000070089000608D50120C5
:103340008007006B000403D403480078C00701D055
:10335000002070470120704754BAFC0770B510492F
:10336000049C4118052901D3012070BD00F00FF81D
:103370000025002807DB0B4A81005058002803D0A5
:103380005550804700E000BE2570002070BD044904
:103390004018052801D240B270470020C043704752
:1033A000F2FBFFFFB88DFC077047704770B50D4604
:1033B0000446FFF7BFFF002806D059482A460421DB
:1033C000201859F756FE70BDFDF7FFF95448042246
:1033D00008231146801E59F70DFB4560047059F70C
:1033E00024FB70BDF8B54F4C069D06190024002E35
:1033F00026D0012E0CD04D4F4B4B3A46283A022E88
:103400000AD04849C91E41180A2927D30120F8BD0E
:1034100000F05DF8287039E00878461E092E0DD8B6
:103420008000001F105898422FD1B0003B58135015
:103430004A6808781146FFF7B9FF26E000BE24E08D
:103440004A68002A02D03A48824200D900BE087871
:1034500033494018042159F70CFE16E03149891E02
:103460004018C0B2411E0929E8D88600B218803A37
:10347000D16F002909D0994207D02E4B994204D030
:10348000D467F219803AD46788472C700020F8BDC1
:103490000A46010010B5264801D0814200D900BE7D
:1034A0000020224B283B84001C59002C04D0401CD7
:1034B0000A28F8DB002010BD84001A51401C0406C5
:1034C000240EF7D02046FFF771FF204610BD10B53F
:1034D00008780C46411E09291FD882001348121F84
:1034E00028388258134B9A4205D100228900425055
:1034F0002830425012E0890040580B4988420DD1D3
:10350000042208231146064859F774FA21780170FD
:103510006168416059F789FA00E000BE002010BDE3
:1035200003040000FFFBFFFFAB33FC07F48DFC0737
:10353000FCFF3F00A933FC070021154A06E0834247
:1035400003D11C20414388187047491C1C234B435E
:10355000D35CFF2BF3D10020704710B51823042251
:1035600009210C4859F746FA04461B202070FD201B
:1035700060F792F86070FD2060800420A080002138
:10358000E180E1602161A182204659F74EFA10BD29
:103590003C65FC071B0D00003EB51D46069B002444
:1035A00000931346019402942A465FF7A1FE3EBDA4
:1035B00070B541480022416AD243002901D011462A
:1035C00000E00121CB17CC0D5B0223434C0241628A
:1035D0003A490D684E682C4333430C604B60036AD4
:1035E000002B01D0144600E00124E317250E1B0236
:1035F0002B4304620D6824024E682C4333430C6055
:103600004B60C369002B01D0144600E00124E3178E
:10361000650EDB012B43C4610D68E4014E682C4349
:1036200033430C604B604369002B00D1012242619F
:10363000D017D30E400118430C6852014B68224347
:1036400018430A60486070BD38B50024092322463B
:10365000194620460094FDF7BEFE00220A230821E9
:1036600010460094FDF7B7FE032500232D022A46DD
:10367000072118460094FDF7AEFE04232A460521D3
:1036800000200094FDF7A7FE38BD10B51B20FDF704
:10369000C7FD01F0BDFA0A490A48FEF7E8FAFFF74C
:1036A000D3FF0948012182898A430A438281044861
:1036B0001830FEF797F810BD708CFC07688CFC077B
:1036C0006466FC07001100500003005010B5B849B3
:1036D000B8A05DF713FBB9A05DF710FB00F08FFCFD
:1036E000BDA05DF70BFBFFF7E1FA10BD70B5054615
:1036F000FD203FF768F801460D230422BC4859F726
:1037000079F90446062060800720A08002462946F9
:10371000A01D5BF7F1FC204659F787F970BD01B594
:10372000FD203FF750F801460A230422B04859F71C
:1037300061F9022141800421818069460988C180A4
:1037400069464988018159F770F908BDF0B58DB017
:10375000FFF79BFF964997A075315DF7CFFAA54C0F
:10376000002660680125002807D00227012812D012
:10377000022824D003280DD14AE09E4B012120339A
:103780001A46103A0020A66000F039FB002800D04D
:10379000A5606560BAE0A06800280BD195480021BB
:1037A000183000900846636A226A00F0ADFB0028DA
:1037B00000D0A5600021A161E161C0C4A6E0A068BD
:1037C000032700281FD108A8009000210846636A3B
:1037D000226A00F099FB0646099B089AE169A069F4
:1037E00001F04CFAE161A0612268521C2260002EB7
:1037F00000D0A560082A06DB0222D24301F0D2FBEA
:103800006760E161A061A06801287FD167607DE009
:10381000A068002815D10022774BE169A06901F06A
:10382000E1FAE161A0610AAA6169206900F058F932
:103830000B9B0A9AE169A06901F020FA06AA00F040
:10384000A0F9A068012803D16C486D490791069042
:103850006CA102A801F0DCFC069807990191009088
:103860006BA2082102A801F0B7FC02A801F0FEF942
:1038700002A920220A54002069464874FFF74FFF2E
:1038800002A8FFF733FF042059F7FAFA03283BD1C7
:10389000614E307800281BD00799069801F0ACFBE8
:1038A00000B20190FD203EF78EFF014650480A23EA
:1038B0000422C01C59F79EF847800421818045707E
:1038C00069468988C1806946C988018159F7ADF880
:1038D0007078002818D002AEFD203EF774FF014634
:1038E00043480D230422C01C59F784F807460620DC
:1038F00078800720B88002467D703146B81D5BF79E
:10390000FBFB384659F791F80020606043490A20D4
:10391000FFF7BEFD404988700DB0F0BD0EB52449DB
:1039200024A011315DF7EAF93DA1684601F070FC71
:103930000020FFF7F4FE6846FFF7D8FE3749642001
:10394000FFF7A6FD34498870FFF7D3F90EBD70B5B7
:103950000C46174905462E3116A05DF7CFF92146D2
:103960002846FFF7ACF970BD10B511490446453142
:1039700010A05DF7C3F92046FFF7AFF910BD70B591
:103980000C460B4905465C310AA05DF7B7F91848AB
:10399000C01D854207D161881F48032904D007292B
:1039A00001D1A179417070BDA179017070BD000095
:1039B0008C66FC070A0D2573000000000A0D496E95
:1039C000697469616C697A696E6720424D50333859
:1039D000382E2E2E000000000A0D424D503338388C
:1039E0002052656769737465722044756D700000BC
:1039F00003FD0000786EFC0700408F4052B81E8522
:103A0000EB3F8FC02020202020202020200000001D
:103A100025302E32660000001C8EFC074D37FC0757
:103A20002D3939392E3939202000000026498A895C
:103A3000520852008A818A89D207D20FFBD1224ACA
:103A4000603A93889B0A9B02034393808A890120F2
:103A5000824302438A818889C007C00FFBD0704728
:103A6000F8B5002415460F462646002B00D0022646
:103A7000FFF7DCFF33466A4629463846FDF751FF1B
:103A800069460988002901D1A84201D00024E443F5
:103A90002046F8BDF8B5002415460F462646002BF3
:103AA00000D00326FFF7C2FF33466A462946384650
:103AB000FDF7FEFE69460988002901D1A84201D020
:103AC0000024E4432046F8BD60130050F949484300
:103AD000012102E000BF00BF491C8142FAD97047B2
:103AE000F7B5002784B004460D46FF43F24E00228E
:103AF000F24B01F0B9FA06D9002233462046294696
:103B000001F09EFA02D8384607B0F0BD0022EA4B19
:103B10002046294601F057F90022E94B01F0CAF985
:103B200001F06AFAC1000290E6484218C0CA0918BA
:103B30008868C9683B46324601F045F9009001911A
:103B400002980A21484301F043FA0022DA4B01F0BF
:103B500095F822462B4601F03CF904460D4600221A
:103B6000D74B0199009801F0A5F922462B4601F0A8
:103B700039F93B46324601F081F8069A03C200202B
:103B8000C2E7F7B5CF4C88B005460E460027E3687C
:103B9000A26801F055FA0CD9052000022018026A2B
:103BA000052000022018436A2846314601F05CFADD
:103BB00003D80020C0430BB0F0BDA42000903818FB
:103BC000C10F08184410E000BE49079008180CC83F
:103BD0002846314601F048FA02D2671C00980AE0F4
:103BE000B849079808180CC82846314601F028FA49
:103BF00003D2601E00908742E1DD00221346284672
:103C0000314601F01DFA30D2AE48E10009180A46EB
:103C10008039CB6F0799803A401807684168926FE6
:103C20003846059101F0CFF8039102903A462846B4
:103C30003146059B01F0C7F8A14F00223B4601F039
:103C4000D1F8039B029A01F035F906460D4620464D
:103C500001F0BEF900223B4601F0C4F80022964B69
:103C600001F00CF832462B462EE09648E100091888
:103C70000A468039803ACB6F926F079905934118B5
:103C800003C9174601F09FF8039102903A4628466F
:103C90003146059B01F097F8894D00222B4601F033
:103CA000A1F8039B029A01F005F907460E4620464B
:103CB00001F08EF900222B4601F094F80022824B8D
:103CC00000F0DCFF3A46334600F0D8FF0A9A03C200
:103CD000002070E738B50023009380230824234395
:103CE0006C462370012802D1202003432370012950
:103CF00003D12078102108432070012A0DD0022A18
:103D000004D0042A05D0082A07D10DE0207801212B
:103D100001E0207802210843207001231A46214641
:103D20006820FFF7B7FE38BD20780321F3E738B5E8
:103D30000446002000900123032269466820FFF713
:103D40008FFE68468078000602D50020C04338BD4B
:103D5000694608784978000201432180002038BD77
:103D6000F3B5002581B00127082407212846FDF777
:103D700017FB1426224600210198FFF7ABFF0A200B
:103D8000FFF7A4FE6846761EFFF7D1FF002802D099
:103D9000002EF4DC01E0002E01DC0125002768463E
:103DA0000021415E4948814206DB012C03D96408A9
:103DB000002FDED100E0012569460020085E01F0F9
:103DC00007F90022424B01F075F8424A012C14D049
:103DD000022C10D0042C03D0082C04D13E4B00E060
:103DE0003E4B00F0FFFF002D01D000200146029A5B
:103DF00003C22846FEBD3A4BF3E73A4BF1E7FFB565
:103E0000002483B02546264600291BD0002769469A
:103E10000398FFF7A5FF002801D0012604272046BC
:103E20002946019B009A00F029FF7F1C04460D469D
:103E3000042FECDB002E0CD1B21E01F0B3F80446C7
:103E40000D4612E069460398FFF78AFF00280AD062
:103E500001260024254620462146069A30C2059AAE
:103E600003C2304650E6019D009C2B4622461E4868
:103E70001E4900F0A8FF0746029100221C4B204675
:103E8000294600F0AFFF3A46029B01F013F80446C2
:103E90000D46184A184B01F00DF801F0E7FE0246F6
:103EA0000B460020154901F005F8154A154B00F0A6
:103EB0008AFFD2E7F106000000E070C0006895407C
:103EC00000002440B867FC07008071C0FF7F00003D
:103ED000C0FFDF40FCA9F1D24D62D03F4D62E03F10
:103EE0004D62F03F4D6200407B14AE47E17A0A40DC
:103EF000809EC340E14903260DC1733F0084AC405E
:103F00006666666666127140F0B51FB400240E4600
:103F100082B02546274607212046FDF726FA002EC7
:103F20002FD000200190082200210298FFF7D2FE36
:103F300014260A20FFF7CAFD6846761EFFF7F7FE33
:103F4000002801D0002EF4DC69460020085E01F054
:103F50003FF80022484B00F0ADFF22462B4600F010
:103F60008DFE04460D46002E47DD0198401C019051
:103F70000828D8DB002F3CD1FA1E204601F012F8A9
:103F80001CE0082200210298FFF7A4FE14260A2054
:103F9000FFF79CFD6846761EFFF7C9FE002802D099
:103FA000002EF4DC29E0002E27DD69460020085EA3
:103FB00001F00EF80022304B00F07CFF2F4A304B0E
:103FC00000F010FF2F4E0022334600F073FF04462E
:103FD0000D462D4A2D4B0599049800F04FFE002206
:103FE000334600F04BFE22462B4600F0FBFE044613
:103FF0000D460C9830C0384686E50127F9E7704732
:1040000010B58CB004AB08AA01210020FFF7F7FE21
:10401000002811D102AC009400210846059B049AA7
:10402000FFF772FF002807D100940121059B049A35
:10403000FFF76AFF002807D0154816490791069038
:10404000079906980CB010BD0022134B03990298F3
:1040500000F0C8FE039102900AAA09990898FFF798
:104060003FFD0B9B0A9A0399029800F007FE06AAEF
:10407000FFF787FDE4E70000C0FFDF40FCA9F1D2B5
:104080004D62D03F882A1141CDCCCCCCCC6C47407E
:1040900052B81E85EB3F8FC000408F40F8B50746F1
:1040A00001200023024600901946032045F7AAF993
:1040B0000446022180300170FF4DFE482A68438883
:1040C0001146FF31F7310B8680884886FB48066A27
:1040D0000123DB069E431E430662FF320020FF32AF
:1040E000383250829082D0821D200882F448488461
:1040F000F448C882F448088300204882384645F7CF
:10410000C1FC01462868FF30F730C28B920992014A
:104110000A43C283ED48416800208847002C02D042
:10412000204644F758FD2046F8BDFFB58BB0064643
:1041300016980027022821D00D98018814988142F2
:1041400078D37188084640383F2802D8159851F72F
:1041500055FD0C98361D0088149A80190E995AF74F
:10416000CBFF0C980188149808180C9908800D98BA
:1041700001881498081A0D9908805CE100200E9DB2
:10418000079069782C78090221433180E978AC786E
:104190000902214371808C46403904242D1D0246BA
:1041A00003468E46402900D32878614604291FD053
:1041B000052914D0062918D070463F283DD81598F7
:1041C00051F71CFD0006000E04D0C148008D00060A
:1041D000C00F30D002230120BE4A002712E06978C8
:1041E00000290FD0BC4A17230CE0BC4A0F2309E07A
:1041F000522802D0D22802D002E0142000E015207C
:10420000B74A1F23002A1AD0984218D280001058AB
:104210000490002813D00020089005907088403842
:10422000402803D32878052430716D1C701D009040
:104230000498B5E0FEE03027F0E03327EEE0708828
:10424000042872D10627E9E0522862D00CDC4B2802
:104250003FD004DC41286AD0422858D111E04C28D4
:1042600020D0502853D140E0632830D004DC5728B8
:1042700018D061284BD19BE06C2864D0772846D1B8
:1042800009E00098297801700098641C401CA4B2D1
:104290006D1C009081E00498401C049001780898FF
:1042A00081427AD10098A41C401C41084900881C16
:1042B000009068782A780002104308800599AD1CA8
:1042C000A4B2002969D008900020059065E0012083
:1042D000FBE71022294600985AF70EFF0098103489
:1042E0001030A4B21035009057E0204640301499A9
:1042F000039088420BD84022294600985AF7FCFECA
:104300000098403000900398403584B245E034274F
:1043100043E00822294600985AF7EEFE0098083438
:104320000830A4B20835009037E068E0FFE70622C5
:10433000294600985AF7E0FE0098A41D801DA4B2FB
:10434000AD1D009029E01498001B80B203903088C6
:10435000001B001D81B2012007900498401C0490AE
:104360000098401C400840000090049800785728AE
:104370001CD04228CBD100980170090A41700098E6
:104380002946801C0090039A5AF7B6FE03980399B9
:10439000201884B20098401800900498401C0490A3
:1043A000007800281ED0002F17D01BE04908E2E754
:1043B0001498001B81B200980391401C40084000F3
:1043C000009001200A460790294600985AF794FE6B
:1043D0000399601884B20098DDE70D990988A1421D
:1043E00000D331E70D980088A04208D304990978DA
:1043F000002904D10799002903D1A04201D0342714
:104400000CE00D99001B08800C9801880098801B17
:10441000001F08180C99002F08800CD07088042801
:1044200009D0062807D04038402804D30E98407998
:10443000707100E0342738460FB0F0BDFFB581B091
:104440001F4616460C46104658F71AFD00257F28D1
:1044500002D02189062909D03B46324621460198DF
:1044600051F75FFF0546284605B0F0BDC00601D5EF
:104470000225F8E720780028F5D1300AA11D3EF783
:10448000E8F8F0E7F1B598B018983EF7E0FA04467E
:10449000189805210079134A4006C00F0990684614
:1044A0000184618B08460A38904276D2E08A062859
:1044B00073D319E030BCFC074CB9FC07C0000040C6
:1044C00010800000294100007671000058BFFC07F1
:1044D00048BEFC073803F2074003F2079C03F207CB
:1044E000D803F207770C00001922D201904254D869
:1044F000228BFF23F5339A424FD8521C9300D218D7
:104500004243521C0A23521059438A4245DC217F00
:1045100000290CD1617F002909D1A17F002906D192
:10452000E17F002903D12021095DC90635D0274646
:1045300020377978C906C90E491F0C292DD2A18AC6
:1045400081422AD8E17C002927D0421E082A01D9BD
:10455000082000E0401E81421FD8684642F738FB21
:1045600000281AD1FE4D0622286221460BA85AF7D0
:10457000C3FDA8792E46803E00287DD06079800951
:1045800001280BD00BA8099948F7F1FD010003D0D1
:104590003820405C002870D09CE009E1F06A807A05
:1045A000012808D0042806D00BA848F74DFE286241
:1045B00000284ED054E0686A06220BA932305AF720
:1045C000BFFD002806D00BA848F73EFE2862002851
:1045D00002D012E0686AF9E700210BA848F74AFE0A
:1045E0002862F16A897A012905D18B071A68490680
:1045F0008A430A431A60002811D0F16A286A062209
:10460000253010315AF79CFD002808D1286AF16A3C
:104610002030C07AC97B884201D1286A1EE0D14887
:10462000D1490088C96880B20622504308183EF775
:1046300013FA014614A8062202305AF75DFD13AAA8
:1046400000213C203EF7D5FC0121B06D43F7FCFE74
:10465000AAE011A90BA848F70DFE2862002839D05E
:1046600001460A9006220FA825315AF745FD0A99FE
:1046700008AA2031C97A01E042E025E00FA848F7F6
:1046800059FC002812D0286A2030C07A002809D1AD
:104690006846B649008C47F7C0FB08AA0121B34819
:1046A00048F748FC68460BA9008C0AE008AA0121DB
:1046B00011A848F73FFC00280CD0296A6846008CF6
:1046C000323147F7C0FB05E00A18527D002A08D0B6
:1046D00010286DDBF06A407A022806D0032804D047
:1046E0000EE0401C1028EFDBF4E76846008C05283C
:1046F00006D308AA0BA8099948F71CFC002857D034
:1047000000226946204648F7BEFC002850D1F06AD6
:10471000407A02280BD0032809D00023684602887B
:104720000BA8099948F7D0FC002802D02FE00123FC
:10473000F4E7E18A68460181218B4181618B8181A7
:10474000787806224109684681757878C106C90ED5
:104750006846417521460E305AF7CEFC189800790C
:104760004006C10F684601750388214602A8B26D54
:1047700043F710FA0146B06502A83EF788FC002016
:10478000B065214668461C31008842F774FA45F747
:10479000F3FA734C2034207A002805D00021092038
:1047A00058F7B1FC002020720021084658F753FB4F
:1047B00019B0F0BDF8B56E4C064685000F4660593D
:1047C0004C21095C24290ED140691022791D2E301C
:1047D0005AF792FC61592520403108730022114696
:1047E000304650F75EFB60594C21095C0C291FD103
:1047F00040691022791D2E305AF77EFC60595F21E6
:104800004069095C09072DD401462E3110221E3063
:104810005AF796FC00280CD06059092140300173EA
:10482000304651F75BF80146002230464FF7B8FE9C
:10483000F8BD0421684601706A460521304650F7EC
:1048400059F8684601786020014368460170304697
:1048500051F744F8014668460278012330464FF785
:10486000B4FFF8BD304651F739F8012809D0605936
:1048700007214030017300221146304650F711FBEA
:10488000F8BD615900204969C0318871605904211F
:10489000426930461E3250F72DF860594169403167
:1048A000897F002907D01A2140300173002130464A
:1048B00050F781FBF8BD1B2140300173304650F7A3
:1048C000CFFBF8BDF8B52A4C05468600A0594C220E
:1048D000125C192A11D140224D30491D5AF70CFCA7
:1048E000A059402223494D305AF72AFC002805D010
:1048F00020492846203957F78EFDF8BD0B21684620
:1049000001706A46052128464FF7F4FF6846017892
:104910006020014368460170284650F7DFFF0146DA
:1049200068460278012328464FF74FFFF8BDFFB5D0
:1049300081B003980C46060A002558F7A1FA002812
:1049400027D0132825D0142823D00B48B700C059EE
:104950002030407BC00637D5039858F791FA0DE018
:1049600030BCFC0768B9FC0760BBFC0750F5F107D9
:104970003CBEFC07FCBDFC0778BBFC0715280CD02F
:10498000A0793EF757F8304643F7F2F8032806D0EF
:1049900015E0A0793EF74EF81FE002251DE0A8487B
:1049A000C0592030407B400704D53D2130463EF7BA
:1049B0003FFD04E03D22002130463EF748FD3D2109
:1049C000304642F71DF908E0204610389D49018124
:1049D000468120464AF706FE0125284644E5F8B5FB
:1049E00010460D46140A58F74BFA010030D094488F
:1049F000A200835801271E8BBF023E431E8313294A
:104A000026D0142924D0152911D080582D21095CD5
:104A10000123CA06002A0CDA0246A032967D002E37
:104A200007D093753D21204642F7EAF810E00220B6
:104A3000F8BD090703D50021A0308175F7E7A03044
:104A4000837520463FF774FA294620463FF7A8FAB7
:104A50000020F8BDFFB581B01546170A104658F77B
:104A60000FFA002837D0132835D0142833D0290A5C
:104A70008C00734E152815D0FF202946033058F7B7
:104A800042FB30592D21095CC90603D5A030C07DF9
:104A900000280DD03D026D1CA8B258F7F1F9192875
:104AA0000BD00EE030590121A030C1750220DBE4AB
:104AB0003D21384642F7A4F80DE0A8B2012158F78D
:104AC000CAF930590122018B5202914301833846C1
:104AD00002993FF765FA0020C6E4F0B5584987000F
:104AE000C959002680314A8C8B8C1B2A00D21B228C
:104AF0008C8B944200D222468A849A4200D00126AE
:104B00000B8CCD8C1B2B00D21B23CC8B9C4200D258
:104B10002346CB84AB4200D001260B8ECD8D9C4624
:104B2000FF2349339D4201D21C4600E02C460D8DE7
:104B3000A54200D325460D86654500D001264C8E42
:104B4000A4468C8D9C4200D21C464B8DA34200D2C1
:104B50001C464C86644500D00126EB080B3B9BB2FB
:104B60009A4200D213468B86522335495843364B1E
:104B7000CA591C688032D28C0419FF34D2B2013475
:104B80002286C9591A6880318018FF30498E013059
:104B900041863046F0BD2D4852220068643081883D
:104BA000C37E5143284A12688918FF225F32525A45
:104BB000FF31120AD21A01310B8CD2B2DB0B09D0B1
:104BC0000B8C5B045B0C0B84002A03D18088204A89
:104BD000012111547047FFB51746140A81B0184AD5
:104BE0000298A100515840780026194D002907D09D
:104BF000295D002905D0002803D120463FF77CFE1F
:104C00002E553A46049B0299019840F706FE2BE484
:104C100010B518220F4910485AF76EFA0D4B0F487D
:104C20000C3B0ECB0EC00C480D49A03001600D4965
:104C3000416009490C482039086010BD70470000E8
:104C400078BBFC07060800004CB9FC0784BBFC07D6
:104C50001F8EFC072067FC0720000840C000FC07EF
:104C60000459F007490C00BF07001000421C0178EE
:104C7000401C0029FBD1801A70470000F0B50746A0
:104C80000846584087B0C00F049048000E465900AF
:104C900040084908BC1A884105D2384631461E46AC
:104CA00017460B4602465800400810434DD0300DC1
:104CB000039040055900400D490D0590401A02909F
:104CC000402873DA18030121000B090508430190FD
:104CD00004980092002806D01146019A494200200B
:104CE000904100910190029840210A1A0199009880
:104CF0005AF746FA05460C466B4607CB00F0C8F952
:104D0000C0197141039A0E0D0023D71756401A4659
:104D10007A40164344D0049A002A2DD0029A012AE0
:104D2000039A15DC1205C01A914101263605001CB4
:104D30007141D20F059ED2070093019202962A4636
:104D4000234600F0C5F907B0F0BD38463146FAE712
:104D50001605234A0F46B218C01AB74101210905AA
:104D6000001C4F4100187F41114618187941E20F8D
:104D700010436D19644113E0E2076D0815436408A0
:104D8000C2071443039A01261205C01A9141360541
:104D9000001C7141CE07400830434908C0185141FA
:104DA0002A46234600F087F9CDE7FFE70498012261
:104DB0004000C117121A00238B4104983146C417D2
:104DC000381AA141EEE730B40124E407634030BC57
:104DD00054E730B40124E407614030BC4EE70000E2
:104DE0000000E0FFF0B51FB488B00B9909980024CB
:104DF00048400999C00F490049080991C0070B991B
:104E00000090490049080B9109990898A646084363
:104E10001CD00B990A98084318D009980124400027
:104E2000420D4800410D099824050003000B204362
:104E300009900B980003000B20430B9050181C495D
:104E40004018002201901446104605E0002001465B
:104E50000DB0F0BD032801DA034600E003239C46B1
:104E6000C11A0AAE0AE05F0008ADED5B4F00F75BC8
:104E70007D430027AA187C41491C5B1E6145F2DD79
:104E8000410004AB5A522104120C0A43240C401C6A
:104E90000828DFDB0198029000997046019100908C
:104EA000059B049A0799069800F012F9D0E70000D4
:104EB0000DFCFFFFF0B50C465C4085B0E40FE40745
:104EC00003944C00002664085900944649080246A1
:104ED0000296224321D062460A431ED06200570D3B
:104EE0004A000E032303550D012402462C492405D4
:104EF000781B1B0B360B401823432643614600905A
:104F00001C46501AB44103D30098401C009002E0A4
:104F1000921800985B41002803DA0020014605B092
:104F2000F0BD0020012109050746864611E06446D0
:104F30001D46141BB54106D36546521BB34174464A
:104F400007430C43A646CD0740084908284392185A
:104F50005B4105460D43EAD11046184313D0604625
:104F6000194650407140084306D06046101AB341BC
:104F700006D20122002306E000220123DB0702E023
:104F80000122D2435310009874460105381C614138
:104F9000029C039D0019694100F08DF8BFE70000F5
:104FA000FD03000070B54B005B0803430BD04B00C2
:104FB0005C0D002633466542B341D417AD1AA341B8
:104FC00002DB0020014670BD12053018514170BD52
:104FD0000EB5C217C10F5040CA0740180021054B3B
:104FE0000293019200910A460B4600F071F803B05B
:104FF00000BD00003304000070B5CD0F4A00090366
:105000000123090B1B0519430B4BED070024520D1F
:105010009A4201DA002070BD074B34339A4203DC18
:105020009A1A5EF70CFA02E00449511888402C43A2
:10503000F1D0404270BD0000FF030000CDFBFFFF38
:1050400010B5002904DB0124E40740428C412146CD
:10505000002B04DB1C460123DB075242A3418B4299
:1050600000D1824210BD000010B5002904DB0124EC
:10507000E40740428C412146002B04DB1C460123FF
:10508000DB075242A341994200D1904210BD00007B
:1050900010B5202A06DBCB170846203A1041C1176D
:1050A0000B4306E00B461341D0402024A21A914046
:1050B0000843194610BD10B5002B08DA0024401C27
:1050C000614192185B411A4301D14008400010BD74
:1050D000F0B51FB482B005460C0003D0084600F0BE
:1050E000ABF802E000F0A8F820300246009021461C
:1050F00028465AF745F8049B059A04460F4618437C
:105100001143084314D0184610431BD00098402187
:105110000A1A184605995EF792F905460E46009A56
:10512000059904985AF72CF8084305D0012004E0AB
:105130002046394607B0F0BD0020C11705430E4395
:105140002C43374300990E986305401A7905E40A09
:1051500000220C43FD0A0A3002D500200146E9E78F
:105160000105101969410C9C0D9D00196941FFF75B
:10517000A2FFDFE74A0009030123090B1B051943BE
:105180000A4B10B5520D9A4202DA0020014610BDBA
:10519000064B34339A4203DC9A1A5EF750F910BD7D
:1051A000034BD21859F7ECFF10BD0000FF030000BD
:1051B000CDFBFFFF064C0125064E05E0E36807CC5A
:1051C0002B430C3C98471034B442F7D3FAF7A4FFB2
:1051D0009067FC07B067FC070FB47CB50C0009AD05
:1051E00001D0611E00E0002101910090074B6A464A
:1051F0002946089800F08CF9002C02D0009A002172
:1052000011707CBC08BC04B0184700004D5CFC0762
:105210000FB410B504A9074B02AA039800F078F95F
:10522000044602A9002000F01CFD204610BC08BC6A
:1052300004B01847635CFC072021020C01D0102148
:105240001046020A01D010460839020901D0104662
:10525000091F820801D01046891E420801D0881E0D
:105260007047081A7047F8B5040C8BB2264682B214
:105270005E430D0C1046370C58433604801900214C
:10528000794116466E43370C36048019794126461B
:105290006E438919F8BDF8B504464F1EC80008389A
:1052A000211815461E46086849683A4606239A435F
:1052B00010D02A463346FFF795FD3A46D200083A09
:1052C000A3181A687F1E5B68FFF7D8FC06223B46CE
:1052D0009343EED1022F23D0042F11D0062F2FD1CC
:1052E0002A463346FFF77EFDE36AA26AFFF7C6FC53
:1052F0002A463346FFF776FD636A226AFFF7BEFC53
:105300002A463346FFF76EFDE369A269FFF7B6FC54
:105310002A463346FFF766FD63692269FFF7AEFC54
:105320002A463346FFF75EFDE368A268FFF7A6FC56
:105330002A463346FFF756FD63682268FFF79EFC56
:10534000F8BD0000002210B5134610460149FFF7D2
:10535000B1FD10BD0000F03F10B50122FFF722FEA5
:1053600010BD002210B5134610461146FFF7A2FDEE
:1053700010BD02E008C8121F08C1002AFAD1704708
:105380007047002001E001C1121F002AFBD17047C5
:105390000149086070470000E06CFC07F0B51FB4DD
:1053A00086B00998089A030D0021024314D0514891
:1053B000514A1818504305141198012810981AD012
:1053C000281A401C00264D4F4D490096019104902B
:1053D000002812DA444211E01198012449A301285F
:1053E00001D11098C1430698119A84600360C2608D
:1053F00041600BB0F0BD4042E4E7044621050020C7
:105400003F4A001C51410391029012E0E00707D08F
:1054100032463B4601990098FFF7E4FC0191009069
:1054200032463B4610461946FFF7DCFC06460F465F
:105430006410002CEAD10498039B0028029A099971
:10544000089806DAFFF7CEFC019B009AFFF7CAFC2A
:1054500005E0FFF72FFD019B009AFFF72BFD0446A7
:105460000E460022284BFFF7FFFD03D80020C04363
:10547000014607E00022254B20463146FFF7FEFBA0
:10548000FFF778FE102409E0002C0ADB0A22002333
:105490005DF7E6FF079B30321A55641E02460A4349
:1054A000F2D11122641C079B121B1C19119B012BAA
:1054B00003D0012308430ED10AE0084304D0112091
:1054C00010900020119077E71098151A6D1E0BE0D0
:1054D0001098824202DD00236D1C03E0824201DA53
:1054E00000236D1E002BEED0069811998260C160DA
:1054F00030C07EE701FCFFFF104D000000001440AB
:105500000000F03F300000000000F0430000E03FEA
:10551000FFB597B0064600251BE2252876D100246A
:105520002746F749049400E00443761C32780120B2
:10553000203A90400842F7D130782A280ED0022233
:10554000307801463039092916D804990A2359437D
:10555000303940181443761C0490F1E7189802C8BB
:1055600004911890002904DA0120400304434842C2
:10557000049002200443761C30782E2814D1042095
:1055800004437078761C2A2809D11898761C80C8A4
:10559000189009E00A214F43303FC719761C307834
:1055A000014630390929F5D930786C2810D006DC4D
:1055B0004C281AD068280ED06A2817D104E0742825
:1055C00013D07A2812D110E00120400504430CE0EA
:1055D0000121090501E0032109050C43717881428D
:1055E00003D1012000052418761C761C307866282B
:1055F0000BD013DC58287DD009DC00287BD045284F
:10560000F6D04628F4D047281AD1A9E118E063283B
:1056100035D0642870D0652812D1A1E170286CD0F3
:1056200008DC6728F1D069287DD06E280DD06F285E
:1056300006D1BCE073282ED0752873D0782859D0B5
:105640001A9A199990476D1C82E16002400F022856
:1056500009D003280DD00428189801680DD00D60DA
:10566000001D189074E11898EA1701680D604A60EF
:10567000F6E7189801680D80F2E70D70F0E71898CA
:105680006A4601781172001D18900020507202A81D
:105690000090012005E0189802C8189000200091A1
:1056A000C04361070ED5002101E00199491C019119
:1056B000B94213DA8142F8DB019A0099895C00292A
:1056C000F3D10BE0002101E00199491C01918142D5
:1056D000FADB019A0099895C0029F5D101990498B7
:1056E0001A9B471A21463846199A00F099FA401930
:1056F000019903E051E030E115E050E0451807E082
:10570000009800990078491C00911A9A19999047BD
:105710000198401E0190401CF2D1214638461A9B48
:10572000199A12E137E00A200021009001916002ED
:10573000410F022907D0189A01CA1892C21794463D
:10574000032908D00AE01898C01DC108C90005C97E
:105750001891944607E000B2C2179446042902D17A
:1057600040B2C1178C4600226146944506DA0A46CB
:105770000021404291418C462D2102E0210504D5B3
:105780002B216A461173012103E0E10701D020219A
:10579000F7E7029156E00A200AE0102008E0102006
:1057A00000900021042004430191082703E0082011
:1057B0000021019100906002410F022907D0189A40
:1057C00001CA189200229446032908D008E01898CC
:1057D000C01DC108C90005C91891944603E080B2F4
:1057E000042900D1C0B20021029121072AD53178C5
:1057F0000D91702906D0009A1021019B4A401A434E
:1058000005D00EE040216A461173012108E061468F
:10581000014306D030216A4611730D99517302215C
:105820000291009A0821019B4A401A430AD161461D
:10583000014301D1610705D530216A461173012169
:105840007F1E02913178582904D02EA10E910DA906
:105850000D910DE030A1F9E76146019B009A5DF7DB
:10586000FFFD0E9B8C469B5C0D9A521E0D92137091
:1058700061460143F0D10D9805A9081A2030019026
:10588000600703D501200004844300E0012701984C
:10589000874201DD381A00E000200199009041188C
:1058A000029809180498401A0490E00306D421468F
:1058B0001A9B199A049800F0B3F94519002706E0DD
:1058C00003A81A9AC05D199990476D1C7F1C029815
:1058D0008742F5DBE0030CD521461A9B199A049800
:1058E00000F09EF9451904E01A9A30201999904762
:1058F0006D1C0099481E00900029F5DC1FE0000097
:105900000928010030313233343536373839616295
:105910006364656600000000303132333435363759
:105920003839414243444546000000000D980D9926
:105930000078491C0D911A9A199990476D1C01998C
:10594000481E01900029F1DC4DE100F059F945199C
:10595000761C3078002800D0DFE528461BB0F0BD6B
:10596000600700D406271898C01DC108C900486800
:105970000A680831C30FDB071891190001D09CA1F8
:1059800008E0210501D59BA104E0E10701D09AA11F
:1059900000E09AA14300109130785B0865280CD094
:1059A00006DC452809D046281DD0472841D141E0D2
:1059B000662818D067283CD13CE00021112F01DB7C
:1059C000112000E0781C0191009008A911A8FFF7B0
:1059D000E5FC139905910021119A15927F1C1298EC
:1059E0000197009150E00120C00703900120019031
:1059F00008A9009711A8FFF7D1FC139A14990592F2
:105A00000022119B009212981593059A0192002989
:105A100001D0104602E0791C40180190381A01D5D7
:105A2000019804E04042401E0090781C0190C01B89
:105A3000029043E0012F00DA01270021112F01DD40
:105A4000112000E038460191009008A911A8FFF745
:105A5000A5FC13990591119A0021129815920091B5
:105A6000019721070CD40599B94201DB019900E0A7
:105A70000191012904DD159A491E515C302906D097
:105A8000B84201DA011D05DA0121029115E0019900
:105A9000491EEDE7002805DC0099411800910199A5
:105AA000091A03E0019A411C914200DD019100991D
:105AB000401A401C02900120C0070390200706D422
:105AC00002990198814202DB0020C043029000202D
:105AD0006946C87707AF012103980337C907884291
:105AE00024D0022011902B201290039800280CDA69
:105AF000404203902D20129007E00A21039859F7A5
:105B000081FA30317F1E039039701199481E11902F
:105B10000029F2DC03980028EFD1791E1298087052
:105B20003078202108404530BF1E387006A8C01BC1
:105B3000C01D039010980078002800D00120019922
